:020000040800F2
:1000000088040020490100085B1000088F0E0008DA
:1000100059100008FD0100087916000800000000D2
:100020000000000000000000000000002B14000889
:100030004702000800000000C11300082D1400084A
:100040006301000863010008630100086301000800
:1000500063010008630100086301000863010008F0
:1000600063010008630100086301000863010008E0
:1000700063010008630100086301000863010008D0
:1000800063010008630100086301000863010008C0
:1000900063010008630100086301000863010008B0
:1000A00063010008630100086301000863010008A0
:1000B000630100089114000863010008630100084F
:1000C0006301000863010008630100086301000880
:1000D0006301000863010008630100086301000870
:1000E0006301000863010008630100086301000860
:1000F0006301000863010008630100086301000850
:10010000630100086301000863010008630100083F
:10011000630100086301000863010008630100082F
:10012000630100086301000863010008630100081F
:10013000DFF810D000F02CF800480047091700083D
:10014000AFF3008088040020064880470648004737
:10015000FEE7FEE7FEE7FEE7FEE7FEE7FEE7FEE777
:10016000FEE7FEE78F14000831010008D2B201E07B
:1001700000F8012B491EFBD270470022F6E710B5AC
:1001800013460A4604461946FFF7F0FF204610BD05
:10019000064C074D06E0E06840F0010394E80700D4
:1001A00098471034AC42F6D3FFF7C6FF001F000893
:1001B000201F00080F4810B5C1681224212342F205
:1001C0001072122901D2C46002E0212900D9C36053
:1001D000C06842F21C51123848430F21B0FBF1F0C5
:1001E000111A05480268D162C160006800214162AD
:1001F00010BD0000000000203C000020FEE710B50C
:1002000000F046FECC2001F039FA4E2001F036FA1B
:10021000192001F033FA1A2001F030FA7F2001F0A2
:100220002DFA00F035FECC2001F028FA482001F02C
:1002300025FA00F02DFECC2001F020FABDE8104098
:10024000B82001F01BBA7047002804D00A21491ECB
:10025000FDD1401EFAD1704772B6FEE710B50920F5
:1002600001F0A8FA092001F09DF900280CD10748F7
:100270000178407801EB002005490009C860BDE81D
:1002800010400A20FFF7E0BF10BD00003000002042
:100290000000002010B5064CA068022803D1002001
:1002A000A06001F093F9A068401CA06010BD0000A0
:1002B0000000002070B5044600F014F90546601CEB
:1002C00002D004480078044400F00CF9401BA0421E
:1002D000FAD370BD200000202DE9F84FDFF8C89157
:1002E0000024A9F1040B23460F2709F1040AABF1FE
:1002F000040ED1E00125A54006EA0502AA4276D106
:10030000DFF8A8C14E68A6EB0C0866452BD00DDCC3
:10031000032E34D005DC36B3012E19D0022E2FD196
:100320001BE0112E16D0122E2AD119E0B8F5881F25
:1003300019D006DCB8F5803F15D0B8F5801F1FD165
:1003400011E0B8F5001F0ED0B8F5041F18D10AE06F
:10035000CB6815E0CB681B1D12E0CB6808330FE0BB
:10036000CB680C330CE08B682BB1012B4FF00803EA
:1003700003D0456104E0042302E0056100E00023AE
:10038000FF2A01D8064601E000F104064FEA840581
:1003900001D9A5F12005D6F8008007FA05FC28EA66
:1003A0000C0803FA05F548EA0508C6F800804D6810
:1003B000ED0070D53E4DAE6946F00106AE61AD6907
:1003C00024F0030605F0010500953A4D06EB050CF7
:1003D000DCF80850A607360F07FA06F825EA0805E4
:1003E000DFF8D480404503D14FF0000825E052E00B
:1003F000DFF8C880404502D14FF001081DE0DFF86A
:10040000C080404502D14FF0020816E0DFF8B4800A
:10041000404502D14FF003080FE0DFF8AC804045C3
:1004200002D14FF0040808E0DFF8A080404502D177
:100430004FF0050801E04FF0060808FA06F848EA10
:100440000508CCF808804D68D9F80060ED024D46EB
:1004500001D5164300E096432E604D68DAF800603F
:10046000AD02554601D5164300E096432E604D6817
:10047000DBF80060AD035D4601D5164300E096430E
:100480002E604D68DEF80060ED03754601D5164319
:1004900000E096432E60641C0A681646E2407FF432
:1004A00029AFBDE8F88F00000804014000001110DA
:1004B000001002400000014000080140000C014013
:1004C000001001400014014000180140001C0140D0
:1004D0008068084000D0012070470AB10161704770
:1004E0000904FBE7014880687047000020000020F5
:1004F0000248816802781144816070472000002022
:10050000074810B5016841F010010160032000F0B8
:1005100075F8002000F006F800F024F8002010BD67
:100520000020024070B50D4D04464FF47A712878D2
:10053000B1FBF0F00A490968B1FBF0F000F0BCFA39
:1005400048B9102C07D200222146501E00F036F880
:1005500000206C6070BD012070BD000020000020F4
:100560002C0000200C4808B5816941F0010181612F
:10057000816901F001010091C16941F08051C161BF
:10058000C06900F0805000900448416821F0E061AB
:1005900041F00071416008BD0010024000000140C0
:1005A000002809DB00F01F02012191404009800072
:1005B00000F1E020C0F8001170470000F0B40E4BCD
:1005C0001B680C46C3F30223C3F10705042D00D9B1
:1005D0000425191D072901D2002300E0DB1E012696
:1005E00006FA05F1491E214099409E40761E1640AC
:1005F0003143F0BC01F068B80CED00E0064900F0B2
:10060000070208684FF6FF03184040EA0220034A39
:1006100010430860704700000CED00E00000FA0590
:100620002DE9F0470F46050061D0434E306800F0D9
:100630000700B84209D2306820F007003843306024
:10064000306800F00700B84251D128683B4C810760
:1006500012D5400703D5606840F4E06060602878F8
:10066000000703D5606840F4605060606068A96866
:1006700020F0F000084360602878C00728D0686840
:10068000012810D02168022810D0890700292EDA0D
:10069000616821F0030101436160FFF723FF804699
:1006A00041F288390DE021688903EFE78901EDE720
:1006B000FFF718FFA0EB0801494502D90320BDE868
:1006C000F0876068696800F00C00B0EB810FEFD133
:1006D000306800F00700B8420BD9306820F00700FE
:1006E00038433060306800F00700B84201D0012084
:1006F000E5E72878400705D56068E96820F4E06000
:10070000084360602878000706D56068296920F4EE
:10071000605040EAC100606000F018F86168084A63
:10072000C1F30311515CC8400649086006480068DF
:10073000FFF7F8FE0020C2E7002002400010024050
:10074000EE1E00082C000020240000200E4A5168F4
:100750000E4801F00C03042B11D0082B0FD10C48CC
:10076000C1F38343C903C05C0AD55168084AC1F389
:100770004041921E515C054A5043B0FBF1F0704776
:1007800004494843704700000010024000127A00FC
:10079000DE1E000800093D002DE9F84F040070D06E
:1007A0002078C04DC00749D06868C0F38100012897
:1007B00007D06868C0F38100022809D16868C003C7
:1007C00006D52868800339D560680028E7D035E071
:1007D0006068B0F5803F0BD010B1B0F5A02F11D0FC
:1007E000286820F480302860286820F4802002E007
:1007F000286840F480302860606890B1FFF772FE8E
:1008000006460AE0286840F480202860F0E700BF30
:10081000FFF768FE801B642873D828688003F7D52B
:100820000CE0FFF75FFE064605E000BFFFF75AFE4B
:10083000801B6428F0D828688003F7D420789A4E6B
:1008400080074FF001094FF0000839D5686810F0B3
:100850000C0F07D06868C0F38100022809D16868CE
:10086000C00306D42868800714D52069012808D160
:1008700010E02069B0B1C6F80090FFF733FE0746DC
:1008800005E00AE1FFF72EFEC01B0228C4D8286845
:100890008007F7D52868616920F0F80040EAC100B8
:1008A00028600DE0C6F80080FFF71CFE074604E054
:1008B000FFF718FEC01B022823D828688007F7D44A
:1008C000207800072CD57948A169D9B1C0F80090EB
:1008D000FFF708FE074604E0FFF704FEC01B0228EE
:1008E0000FD8686A8007F7D571484FF4FA5100684D
:1008F000B0FBF1F0009000BF0098411E0091FAD2C9
:100900000EE080E0C0F80080FFF7ECFD074604E051
:10091000FFF7E8FDC01B022875D8686A8007F7D486
:100920002078400760D5E8690027C00008D4E8694E
:1009300040F08050E861E869012700F080500090A5
:100940005C480168C90513D40168834641F480718D
:100950000160FFF7C7FD824606E000BFFFF7C2FD5A
:10096000A0EB0A0064284ED8DBF80000C005F5D5DE
:10097000E06801280AD008B1052813D0286A20F0C1
:1009800001002862286A20F0040002E0286A40F092
:1009900001002862E06841F2883B98B1FFF7A2FDB0
:1009A00082460BE0286A40F004002862EEE700BFB0
:1009B000FFF798FDA0EB0A0159455AD8286A80072D
:1009C000F6D50CE0FFF78EFD824605E0FFF78AFDC5
:1009D000A0EB0A0159454CD8286A8007F6D41FB10C
:1009E000E86920F08050E861E06988B36968C1F384
:1009F0008101022944D00228C6F8608004D0FFF7A4
:100A000071FD044638E034E0FFF76CFD074604E072
:100A1000FFF768FDC01B02282BD828688001F7D497
:100A2000206AB0F5803F05D16868A16820F40030E5
:100A300008436860D4E908010843696821F4741127
:100A400008436860C6F86090FFF74CFD044606E076
:100A500025E000BFFFF746FD001B022809D82868E3
:100A60008001F7D51BE000BFFFF73CFD001B02280B
:100A700002D90320BDE8F88F28688001F4D40EE085
:100A80000128F7D06868226A00F48031914204D1CD
:100A9000616A00F47010884201D00120EAE700206A
:100AA000E8E7000000100240000042428004424299
:100AB0002C0000200070004010B5401EB0F1807F77
:100AC00001D3012010BD4FF0E02460610F216017B9
:100AD00000F0FAFD0020A06107202061002010BD79
:100AE0007047704770B590F83C20012A2CD0012443
:100AF00080F83C40022280F83D2003685A689D68D7
:100B000022F070060A6832435A60104B02689A421B
:100B10000ED00F4B9A420BD0B2F1804F08D00D4B44
:100B20009A4205D00C4B9A4202D00C4B9A4204D107
:100B3000496825F080031943916080F83D40002109
:100B400080F83C10084670BD022070BD002C0140AA
:100B5000003401400004004000080040000C004048
:100B600010B5040003D094F83D0010B107E0012057
:100B700010BD002084F83C00204600F01FF8022041
:100B800084F83D00211D206800F088FC012084F8D5
:100B9000460084F83E0084F83F0084F8400084F862
:100BA000410084F8420084F8430084F8440084F84B
:100BB000450084F83D00002010BD000008B5006825
:100BC0000B49884212D10B48C16941F00201C16151
:100BD000C069002200F00200009011461D20FFF7BE
:100BE000EDFCBDE808401D20FFF7DABC08BD0000A1
:100BF000000400400010024090F83D10012901D08F
:100C000001207047022180F83D100168CA6842F057
:100C10000102CA6000680E4988420ED00D49884220
:100C20000BD0B0F1804F08D00B49884205D00B495A
:100C3000884202D00A49884204D1816801F0070144
:100C4000062903D0016841F00101016000207047CE
:100C5000002C014000340140000400400008004026
:100C6000000C004070B5044690F83C0000250128B7
:100C700017D0012684F83C60022084F83D002068EB
:100C8000826822F0770222F47F428260086850284E
:100C900038D00DDC20284FD005DC90B3102811D1BE
:100CA0004AE0022070BD302846D040280AD13BE0FF
:100CB00060282FD070280DD0B0F5805F03D0B0F53C
:100CC000005F12D0012584F83D60002084F83C00CC
:100CD000284670BDCB68D1E90121206800F02CFCCA
:100CE0002068816841F0770109E0CB68D1E90121F2
:100CF000206800F021FC2068816841F48041816017
:100D0000E1E719E0CA684968206800F027FC502133
:100D1000206806E0CA684968206800F030FC60215D
:100D2000206800F013FCCEE7CA684968206800F02C
:100D300015FC40212068F4E7226801461046F0E7E0
:100D400070472DE9F04104460068C66805694FF018
:100D50000007A90713D5B10711D5F91E01610120BC
:100D60002077206880698007204602D0FFF7E8FFDF
:100D700004E000F07EF8204600F07CF82777680752
:100D800016D5700714D521686FF0040008610220A1
:100D900020772068806910F4407F204602D0FFF75A
:100DA000CFFF04E000F065F8204600F063F82777F5
:100DB000280715D5300713D521686FF008000861A2
:100DC000042020772068C0698007204602D0FFF702
:100DD000B7FF04E000F04DF8204600F04BF827770D
:100DE000E80616D5F00614D521686FF010000861EA
:100DF000082020772068C06910F4407F204602D088
:100E0000FFF79EFF04E000F034F8204600F032F8CF
:100E10002777E80708D0F00706D021686FF00100B7
:100E20000861204600F028F8280608D5300606D5C7
:100E300021686FF0800008612046FFF751FE6806C8
:100E400008D5700606D521686FF04000086120467D
:100E500000F01CF8A8060AD5B00608D521686FF086
:100E6000200008612046BDE8F041FFF73ABEBDE82A
:100E7000F08170477047000000680349884201D143
:100E800000F0CEBB70470000000400407047FEE752
:100E900010B5184C012211462046FFF71EFB022018
:100EA000FFF7D2F9002201212046FFF716FB4FF48D
:100EB000F570FFF7C9F9002201212046FFF70DFB6D
:100EC0006420FFF7C1F901212046FFF701FB010073
:100ED00009480CD0002181704FF4F070FFF7B4F98D
:100EE00020460122BDE810401146FFF7F6BA012165
:100EF000F1E7000000080140000000202DE9F04F5C
:100F000085B000242D4800940194029403948169D3
:100F100041F020018161816901F020010491816922
:100F200041F004018161816901F00401049181694A
:100F300041F008018161816901F008010491816932
:100F400041F0100181618069DFF8749000F01000B9
:100F50000490002201214846FFF7BFFADFF864A0A1
:100F60004FF44C57002239465046FFF7B6FADFF8E7
:100F700058B04FF47078002241465846FFF7ADFA5A
:100F80000125022603960095CDE90154694648469D
:100F9000FFF7A2F900970396CDE901546946504640
:100FA000FFF79AF9CDF800800396CDE90154694620
:100FB0005846FFF791F905B0BDE8F08F00100240E8
:100FC00000080140000C0140001001401F4810B50E
:100FD000C16988B041F00201C161C069002400F01C
:100FE000020000940194029403940494CDE9054016
:100FF0001848174901604721C0E9011440F2E73160
:10100000C0E903148461FFF7ABFD08B1FFF724F9D1
:101010004FF48050009069460E48FFF723FE08B158
:10102000FFF71AF9049404A90A480594FFF75AFD3A
:1010300008B1FFF711F9002201211D20FFF7BEFAC8
:101040001D20FFF7ADFA08B010BD000000100240EF
:10105000000400403C000020FEE7FEE770B50024DD
:1010600004F1B000C0B2002100F068F90021084688
:1010700000F064F90021102000F060F90025012142
:10108000002000F05BF96D1CEDB2802DF7D3641CDD
:10109000E4B2082CE4D370BD70B5002404F1B400B0
:1010A000C0B2002100F04AF90021084600F046F9DC
:1010B0000021102000F042F900250121002000F05D
:1010C0003DF96D1CEDB2802DF7D3641CE4B2082C01
:1010D000E4D370BD30B585B0002002904C488169E2
:1010E00041F00801816180694FF44C5400F0080020
:1010F00004900120CDE900400220464D039069464E
:101100002846FFF7E9F8012221462846FFF7E5F9CE
:101110006420FFF7CFF80021AE2000F00FF9002186
:10112000084600F00BF90021102000F007F900211B
:10113000402000F003F90021812000F0FFF8002199
:10114000CF2000F0FBF80021A12000F0F7F80021EB
:10115000C82000F0F3F80021A62000F0EFF80021ED
:10116000A82000F0EBF800213F2000F0E7F8002174
:10117000D32000F0E3F80021084600F0DFF800215A
:10118000D52000F0DBF80021F02000F0D7F8002196
:10119000D92000F0D3F80021F12000F0CFF8002191
:1011A000DA2000F0CBF80021122000F0C7F800216F
:1011B000DB2000F0C3F80021402000F0BFF8002140
:1011C000202000F0BBF80021022000F0B7F8002139
:1011D0008D2000F0B3F80021142000F0AFF80021BA
:1011E000A42000F0ABF80021A62000F0A7F8002111
:1011F000AF2000F0A3F80021AF2000F09FF8FFF728
:101200002DFF0021084600F007F805B030BD0000B2
:1012100000100240000C014010B50446B031C8B2C5
:10122000002100F08BF8102040EA1410002100F09B
:1012300085F804F00F00BDE8104040F001000021E7
:1012400000F07CB82DE9F041203A00240D4680469C
:10125000D7B27F2803D900208D1C8046EDB22946E5
:10126000FFF7DAFF0F4E00BF04EB07100121305CDF
:1012700000F064F8641CE4B2082CF5D36D1CE9B2EC
:101280004046FFF7C9FF002404EB0710304401215A
:10129000007A00F053F8641CE4B2082CF4D3BDE8E3
:1012A000F0810000DC1700082DE9F0478046002699
:1012B00008981D4691468A463446470821E0281B77
:1012C000401EC1B20A2000F06DFAB9FBF0F00A210D
:1012D000B0FBF1F201FB120026B9691E8C4201DA63
:1012E00030B101263030C2B207FB0480C0B203E047
:1012F00007FB0480C0B220225146FFF7A3FF641C05
:10130000E4B2AC42DBD3BDE8F0872DE9F0411746EB
:101310000E46044600250CE031462046FFF792FFBA
:101320000834E4B2782C02D90024B61CF6B26D1C45
:10133000EDB27A5D002AEFD1BDE8F0812DE9F047EA
:101340001E4D06464FF4805A09B1012200E00022EA
:1013500051462846FFF7C1F84FF400580022414695
:101360002846FFF7BAF800244FF400794FF480774D
:10137000002239462846FFF7B0F8300601D5012291
:1013800000E0002249462846FFF7A7F80122394627
:101390002846FFF7A2F87006641C060EE4B2082C7B
:1013A000E6D3012241462846FFF797F851462846E2
:1013B000BDE8F0470122FFF790B80000000C0140A3
:1013C0007047000070B50024114E2546002201210F
:1013D0003046FFF782F80220FEF736FF012264084C
:1013E00011463046FFF779F80420FEF72DFF012162
:1013F0003046FFF76DF8012801D144F08004412008
:10140000FEF722FF6D1CEDB2082DDFD3204670BD24
:101410000008014010B5FFF73BFD332000F02EF926
:10142000BDE81040082000F0C5B97047FFF760B86C
:1014300030B58FB028216846FEF79FFE14210AA818
:10144000FEF79BFE01210804CDE900100024029460
:1014500002250491CDE907504FF4E0100990684649
:10146000FFF79AF908B172B6FEE70F20CDE90A0539
:101470004FF48060CDE90C4002210AA80E94FFF7DA
:10148000CFF8002801D072B6FEE70FB030BD70472C
:101490000148FFF756BC00003C000020F0B5026890
:1014A000204C214D214E224F224B4FF0804CA04228
:1014B00009D0984207D0604505D0A84203D0B04279
:1014C00001D0B84204D122F0700E4A6842EA0E02FE
:1014D000A04209D0984207D0604505D0A84203D069
:1014E000B04201D0B84203D122F44075CA682A4301
:1014F0004D6922F080022A4302608A68C2620A684B
:101500008262A04201D0984201D1096901630121A0
:1015100041610169C90703D0016921F0010101613D
:10152000F0BD0000002C0140000400400008004015
:10153000000C00400034014010B5846842EA0322E8
:1015400024F47F440A432243826010BD826822F063
:1015500070020A4342F007018160704710B5036AC8
:10156000046A24F001040462846924F0F00444EA6B
:10157000021423F00A020A438461026210BD10B50E
:10158000036A046A24F010040462846923F0A0034F
:1015900024F4704444EA023243EA01118261016298
:1015A00010BD000030B5024600200146054B064C38
:1015B00004E05D5C4540491C605DC9B29142F8D3CE
:1015C00030BD000030000020DC1D000810B51248BE
:1015D000A0F118046061FFF71DFFFEF710FEFFF792
:1015E00057FC1420FEF766FECC2000F047F844209C
:1015F00000F044F8FFF74CFC1420FEF75BFECC2013
:1016000000F03CF8BE2000F039F804486061BDE805
:101610001040FEF723BE000018000020300000201C
:1016200070B5124C61782046007819B1401C00F06A
:10163000030002E0C0B1401EC0B22070E06819286B
:101640000ED30B4D00224FF470712846FEF745FF74
:1016500008482178012230F811102846FEF73DFF96
:101660006068401C606070BD0320E6E70000002059
:1016700000100140D41D0008FEE7000070B5114EB7
:1016800005460024002201213046FEF726FF0220F5
:10169000FEF7DAFDE80701D0012200E00022012177
:1016A0003046FEF71AFF2D20FEF7CEFD012211462F
:1016B0003046FEF712FF641C6D08E4B2082CE1D33B
:1016C00070BD0000000801400907090E002804DB76
:1016D00000F1E02080F80014704700F00F0000F1E6
:1016E000E02080F8141D704702E008C8121F08C1EE
:1016F000002AFAD170477047002001E001C1121F93
:10170000002AFBD17047000008B50025FEF7F8FE5F
:10171000FFF78EFEFFF7F2FBFFF758FCFFF7DAFC4E
:10172000FFF79CFC002118A20846FFF7EEFDFEF72C
:10173000B1FDFEF7AFFD1948FFF75EFA184C002621
:10174000666001206070102741F28838FEF732FD94
:10175000FEF7A0FD0097032306216420E268FFF74F
:10176000A3FDE068182806D9B5FBF8F108FB115075
:101770006D1C0028EAD107237F22062164200096F1
:10178000FFF78AFCE2E700005468652074656D701D
:101790006572617475726520697320003C000020D9
:1017A000000000200246012000E05043491EC9B25B
:1017B000FBD2704770B506460024074D08E000BF15
:1017C000FFF700FE6969641CE4B201F8010B69616E
:1017D000B442F5D370BD00000000002000000000FE
:1017E000000000000000000000000000000000F801
:1017F00000000000000000333000000000100C0664
:10180000100C0600000000000000000040C07840FE
:10181000C0784000043F04043F040400007088FCCA
:1018200008300000001820FF211E0000F008F00022
:10183000E018000000211C031E211E0000F0088893
:10184000700000001E2123241927211010160E00FD
:10185000000000000000000000000000000000E0A8
:1018600018040200000000071820400000020418BD
:10187000E00000000040201807000000404080F019
:10188000804040000202010F01020200000000F04F
:10189000000000000101011F010101000000000023
:1018A0000000000080B07000000000000000000098
:1018B0000000000000010101010101010000000021
:1018C00000000000003030000000000000000000B8
:1018D00080601804006018060100000000E0100895
:1018E0000810E000000F102020100F00001010F86A
:1018F000000000000020203F2020000000700808A9
:101900000888700000302824222130000030088828
:10191000884830000018202020110E000000C02050
:1019200010F8000000070424243F240000F8088871
:10193000880808000019212020110E0000E01088FE
:1019400088180000000F112020110E000038080830
:10195000C83808000000003F000000000070880840
:1019600008887000001C222121221C0000E01008C1
:101970000810E0000000312222110F00000000C01A
:10198000C0000000000000303000000000000080B7
:1019900000000000000080600000000000008040A7
:1019A00020100800000102040810200040404040C0
:1019B0004040400004040404040404000008102013
:1019C0004080000000201008040201000070480858
:1019D0000808F0000000003036010000C030C828C0
:1019E000E810E0000718272423140B000000C0387B
:1019F000E0000000203C23020227382008F88888F5
:101A000088700000203F202020110E00C030080800
:101A100008083800071820202010080008F80808D7
:101A20000810E000203F202020100F0008F88888D0
:101A3000E8081000203F20202320180008F888889C
:101A4000E8081000203F200003000000C030080814
:101A50000838000007182020221E020008F808009D
:101A60000008F808203F210101213F20000808F864
:101A7000080800000020203F202000000000080887
:101A8000F8080800C08080807F00000008F888C047
:101A900028180800203F20012638200008F80800F8
:101AA00000000000203F20202020300008F8F8002F
:101AB000F8F80800203F003F003F200008F830C041
:101AC0000008F808203F200007183F00E010080831
:101AD0000810E0000F10202020100F0008F8080860
:101AE0000808F000203F210101010000E010080873
:101AF0000810E0000F18242438504F0008F8888898
:101B000088887000203F2000030C30200070880877
:101B1000080838000038202121221C00180808F885
:101B2000080818000000203F2000000008F8080006
:101B30000008F808001F202020201F0008788800D7
:101B400000C83808000007380E010000F80800F847
:101B50000008F800033C0700073C030008186880F1
:101B60008068180820302C03032C30200838C80067
:101B7000C83808000000203F2000000010080808B6
:101B8000C83808002038262120201800000000FE58
:101B9000020202000000007F40404000000C30C004
:101BA00000000000000000010638C0000002020230
:101BB000FE000000004040407F00000000000402E2
:101BC000020204000000000000000000000000000D
:101BD00000000000808080808080808000020204FD
:101BE00000000000000000000000000000008080F5
:101BF000808000000019242222223F2008F8008063
:101C000080000000003F112020110E000000008025
:101C100080800000000E11202020110000000080B4
:101C20008088F800000E112020103F2000008080E6
:101C300080800000001F222222221300008080F0FA
:101C4000888888180020203F202000000000808025
:101C500080808000006B94949493600008F800806A
:101C600080800000203F210000203F2000809898C5
:101C7000000000000020203F202000000000008025
:101C80009898000000C08080807F000008F8000065
:101C900080808000203F24022D302000000808F8BA
:101CA000000000000020203F202000008080808075
:101CB00080808000203F20003F20003F8080008007
:101CC00080800000203F210000203F200000808015
:101CD00080800000001F202020201F0080800080C6
:101CE0008000000080FFA12020110E000000008075
:101CF00080808000000E112020A0FF808080800066
:101D00008080800020203F21200001000000808092
:101D1000808080000033242424241900008080E087
:101D2000808000000000001F202000008080000054
:101D300000808000001F202020103F208080800035
:101D40000080808000010E30080601008080008045
:101D5000008080800F300C030C300F00008080006A
:101D6000808080000020312E0E3120008080800095
:101D70000080808080818E70180601000080808045
:101D8000808080000021302C2221300000000000E3
:101D9000807C020200000000003F40400000000084
:101DA000FF00000000000000FF0000000002027CB5
:101DB000800000000040403F0000000000060101DC
:101DC0000202040400000000000000000002000104
:101DD000800040004000800000010002005EBCE284
:101DE000613FDD83C29C7E20A3FD1F419DC3217FF7
:101DF000FCA2401E5F01E3BD3E6082DC237D9FC1EB
:101E0000421CFEA0E1BF5D0380DE3C62BEE0025CDE
:101E1000DF81633D7C22C09E1D43A1FF4618FAA4CA
:101E200027799BC584DA3866E5BB5907DB856739B6
:101E3000BAE406581947A5FB7826C49A653BD987AA
:101E4000045AB8E6A7F91B45C6987A24F8A6441A9E
:101E500099C7257B3A6486D85B05E7B98CD2306E8A
:101E6000EDB3510F4E10F2AC2F7193CD114FADF376
:101E7000702ECC92D38D6F31B2EC0E50AFF1134D6A
:101E8000CE90722C6D33D18F0C52B0EE326C8ED05E
:101E9000530DEFB1F0AE4C1291CF2D73CA9476284A
:101EA000ABF517490856B4EA6937D58B5709EBB536
:101EB00036688AD495CB2977F4AA4816E9B7550B2A
:101EC00088D6346A2B7597C94A14F6A8742AC8961E
:101ED000154BA9F7B6E80A54D7896B3501020203FE
:101EE0000405060708090A0B0C0D0E0F1010000060
:101EF00000000000000001020304060708090000BA
:101F0000201F00080000002030000000E816000834
:101F1000501F00083000002058040000F816000888
:101F200000010000000000000000000000000000B0
:101F300000000000000000000000000000000000A1
:101F40000100000010000000000000000024F40068
:0400000508000131BD
:00000001FF
